{
  "_format": "hh-sol-artifact-1",
  "contractName": "NFTMarketPlace",
  "sourceName": "contracts/NFTMarketplace.sol",
  "abi": [
    {
      "inputs": [],
      "stateMutability": "nonpayable",
      "type": "constructor"
    },
    {
      "anonymous": false,
      "inputs": [
        {
          "indexed": true,
          "internalType": "uint256",
          "name": "itemId",
          "type": "uint256"
        },
        {
          "indexed": true,
          "internalType": "uint256",
          "name": "tokenId",
          "type": "uint256"
        },
        {
          "indexed": true,
          "internalType": "address",
          "name": "nftContract",
          "type": "address"
        },
        {
          "indexed": false,
          "internalType": "address",
          "name": "creator",
          "type": "address"
        },
        {
          "indexed": false,
          "internalType": "address",
          "name": "owner",
          "type": "address"
        },
        {
          "indexed": false,
          "internalType": "uint256",
          "name": "price",
          "type": "uint256"
        },
        {
          "indexed": false,
          "internalType": "bool",
          "name": "listed",
          "type": "bool"
        }
      ],
      "name": "MarketItemCreated",
      "type": "event"
    },
    {
      "inputs": [
        {
          "internalType": "uint256",
          "name": "tokenId",
          "type": "uint256"
        }
      ],
      "name": "cancelListing",
      "outputs": [],
      "stateMutability": "payable",
      "type": "function"
    },
    {
      "inputs": [
        {
          "internalType": "uint256",
          "name": "tokenId",
          "type": "uint256"
        },
        {
          "internalType": "uint256",
          "name": "price",
          "type": "uint256"
        }
      ],
      "name": "changePrice",
      "outputs": [],
      "stateMutability": "payable",
      "type": "function"
    },
    {
      "inputs": [
        {
          "internalType": "address",
          "name": "nftContract",
          "type": "address"
        },
        {
          "internalType": "uint256",
          "name": "tokenId",
          "type": "uint256"
        }
      ],
      "name": "createMarketItem",
      "outputs": [],
      "stateMutability": "payable",
      "type": "function"
    },
    {
      "inputs": [
        {
          "internalType": "address",
          "name": "nftContract",
          "type": "address"
        },
        {
          "internalType": "uint256",
          "name": "tokenId",
          "type": "uint256"
        },
        {
          "internalType": "uint256",
          "name": "price",
          "type": "uint256"
        }
      ],
      "name": "createMarketListing",
      "outputs": [],
      "stateMutability": "payable",
      "type": "function"
    },
    {
      "inputs": [
        {
          "internalType": "address",
          "name": "nftContract",
          "type": "address"
        },
        {
          "internalType": "uint256",
          "name": "tokenId",
          "type": "uint256"
        }
      ],
      "name": "createMarketSale",
      "outputs": [],
      "stateMutability": "payable",
      "type": "function"
    },
    {
      "inputs": [],
      "name": "fetchMarketItems",
      "outputs": [
        {
          "components": [
            {
              "internalType": "uint256",
              "name": "itemId",
              "type": "uint256"
            },
            {
              "internalType": "uint256",
              "name": "tokenId",
              "type": "uint256"
            },
            {
              "internalType": "address",
              "name": "nftContract",
              "type": "address"
            },
            {
              "internalType": "address payable",
              "name": "creator",
              "type": "address"
            },
            {
              "internalType": "address payable",
              "name": "owner",
              "type": "address"
            },
            {
              "internalType": "uint256",
              "name": "price",
              "type": "uint256"
            },
            {
              "internalType": "bool",
              "name": "listed",
              "type": "bool"
            }
          ],
          "internalType": "struct NFTMarketPlace.MarketItem[]",
          "name": "",
          "type": "tuple[]"
        }
      ],
      "stateMutability": "view",
      "type": "function"
    },
    {
      "inputs": [],
      "name": "getListingPrice",
      "outputs": [
        {
          "internalType": "uint256",
          "name": "",
          "type": "uint256"
        }
      ],
      "stateMutability": "view",
      "type": "function"
    },
    {
      "inputs": [
        {
          "internalType": "uint256",
          "name": "_listingPrice",
          "type": "uint256"
        }
      ],
      "name": "updateListingPrice",
      "outputs": [],
      "stateMutability": "payable",
      "type": "function"
    }
  ],
  "bytecode": "0x608060405264e8d4a5100060035534801561001957600080fd5b506001600055600280546001600160a01b03191633179055610cd3806100406000396000f3fe60806040526004361061007b5760003560e01c8063b3de019c1161004e578063b3de019c146100f1578063c23b139e14610104578063c30ad5e714610117578063dd5f85181461012a57600080fd5b80630f08efe01461008057806312e85585146100ab578063305a67a8146100c9578063ae677aa3146100de575b600080fd5b34801561008c57600080fd5b5061009561013d565b6040516100a29190610b76565b60405180910390f35b3480156100b757600080fd5b506003546040519081526020016100a2565b6100dc6100d7366004610b3d565b6102b9565b005b6100dc6100ec366004610b3d565b6103da565b6100dc6100ff366004610b55565b610452565b6100dc610112366004610ae2565b610566565b6100dc610125366004610b0b565b610749565b6100dc610138366004610ae2565b6108d0565b6060600061014a60015490565b905060008167ffffffffffffffff81111561017557634e487b7160e01b600052604160045260246000fd5b6040519080825280602002602001820160405280156101dc57816020015b6040805160e08101825260008082526020808301829052928201819052606082018190526080820181905260a0820181905260c082015282526000199092019101816101935790505b50905060005b828110156102b25760006004816101fa846001610c54565b81526020808201929092526040908101600020815160e0810183528154815260018201549381019390935260028101546001600160a01b039081169284019290925260038101548216606084015260048101549091166080830152600581015460a0830152600681015460ff16151560c0830152845190925084908490811061029357634e487b7160e01b600052603260045260246000fd5b60200260200101819052505080806102aa90610c6c565b9150506101e2565b5092915050565b60006102c460015490565b90506000805b8281101561031a5783600460006102e2846001610c54565b815260200190815260200160002060010154141561030857610305816001610c54565b91505b8061031281610c6c565b9150506102ca565b50600081815260046020819052604090912001546001600160a01b03161561038457600081815260046020819052604090912001546001600160a01b0316331461037f5760405162461bcd60e51b815260040161037690610c0a565b60405180910390fd5b6103bd565b6000818152600460205260409020600301546001600160a01b031633146103bd5760405162461bcd60e51b815260040161037690610c0a565b6000908152600460205260409020600601805460ff191690555050565b6002546001600160a01b0316331461044d5760405162461bcd60e51b815260206004820152603060248201527f4f6e6c79206d61726b6574706c616365206f776e65722063616e20757064617460448201526f32903634b9ba34b73390383934b1b29760811b6064820152608401610376565b600355565b600061045d60015490565b90506000805b828110156104b357846004600061047b846001610c54565b81526020019081526020016000206001015414156104a15761049e816001610c54565b91505b806104ab81610c6c565b915050610463565b50600081815260046020819052604090912001546001600160a01b03161561051457600081815260046020819052604090912001546001600160a01b0316331461050f5760405162461bcd60e51b815260040161037690610c0a565b61054d565b6000818152600460205260409020600301546001600160a01b0316331461054d5760405162461bcd60e51b815260040161037690610c0a565b6000908152600460205260409020600501919091555050565b61056e610a6c565b600061057960015490565b90506000805b828110156105cf578360046000610597846001610c54565b81526020019081526020016000206001015414156105bd576105ba816001610c54565b91505b806105c781610c6c565b91505061057f565b50600081815260046020526040902060050154348114610659576040805162461bcd60e51b81526020600482015260248101919091527f506c65617365207375626d6974207468652061736b696e67207072696365206960448201527f6e206f7264657220746f20636f6d706c657465207468652070757263686173656064820152608401610376565b60008281526004602081905260408083209091015490516001600160a01b03909116913480156108fc02929091818181858888f193505050501580156106a3573d6000803e3d6000fd5b506040516323b872dd60e01b8152306004820152336024820152604481018590526001600160a01b038616906323b872dd90606401600060405180830381600087803b1580156106f257600080fd5b505af1158015610706573d6000803e3d6000fd5b5050506000928352505060046020819052604090912090810180546001600160a01b03191633179055600601805460ff19169055506107456001600055565b5050565b610751610a6c565b600081116107a15760405162461bcd60e51b815260206004820152601c60248201527f5072696365206d757374206265206174206c65617374203120776569000000006044820152606401610376565b60035434146107fe5760405162461bcd60e51b8152602060048201526024808201527f5072696365206d75737420626520657175616c20746f206c697374696e6720706044820152637269636560e01b6064820152608401610376565b600061080960015490565b90506000805b8281101561085f578460046000610827846001610c54565b815260200190815260200160002060010154141561084d5761084a816001610c54565b91505b8061085781610c6c565b91505061080f565b5060008181526004602052604080822060068101805460ff1916600117905560050185905560025460035491516001600160a01b039091169282156108fc02929190818181858888f193505050501580156108be573d6000803e3d6000fd5b5050506108cb6001600055565b505050565b6108d8610a6c565b6108e6600180546001019055565b60006108f160015490565b6040805160e08101825282815260208082018681526001600160a01b03888116848601818152336060870181815260006080890181815260a08a0182815260c08b018381528d845260049a8b90528c84209b518c55985160018c0155945160028b0180546001600160a01b0319908116928a16929092179055925160038b018054851691891691909117905551898901805490931696169590951790559051600587015592516006909501805460ff19169515159590951790945593516323b872dd60e01b8152918201523060248201526044810186905292935090916323b872dd90606401600060405180830381600087803b1580156109f157600080fd5b505af1158015610a05573d6000803e3d6000fd5b505060408051338152600060208201819052818301869052606082015290516001600160a01b038816935086925085917f559a3a6d05e6c668564a802e14c9315ffcce4efdb13bf30a43c6790b957c36be919081900360800190a450506107456001600055565b60026000541415610abf5760405162461bcd60e51b815260206004820152601f60248201527f5265656e7472616e637947756172643a207265656e7472616e742063616c6c006044820152606401610376565b6002600055565b80356001600160a01b0381168114610add57600080fd5b919050565b60008060408385031215610af4578182fd5b610afd83610ac6565b946020939093013593505050565b600080600060608486031215610b1f578081fd5b610b2884610ac6565b95602085013595506040909401359392505050565b600060208284031215610b4e578081fd5b5035919050565b60008060408385031215610b67578182fd5b50508035926020909101359150565b602080825282518282018190526000919060409081850190868401855b82811015610bfd578151805185528681015187860152858101516001600160a01b03908116878701526060808301518216908701526080808301519091169086015260a0808201519086015260c09081015115159085015260e09093019290850190600101610b93565b5091979650505050505050565b6020808252602a908201527f4f6e6c79206974656d206f776e65722063616e20706572666f726d20746869736040820152691037b832b930ba34b7b760b11b606082015260800190565b60008219821115610c6757610c67610c87565b500190565b6000600019821415610c8057610c80610c87565b5060010190565b634e487b7160e01b600052601160045260246000fdfea2646970667358221220879d7ed84a72741864e9c9ec7323d520ae7092613e4a84201778449224bf1b7164736f6c63430008040033",
  "linkReferences": {},
  "deployedLinkReferences": {}
}